{
  "contractName": "HTLC",
  "abi": [
    {
      "inputs": [
        {
          "internalType": "address",
          "name": "_recipient",
          "type": "address"
        },
        {
          "internalType": "address",
          "name": "_token",
          "type": "address"
        },
        {
          "internalType": "uint256",
          "name": "_amount",
          "type": "uint256"
        }
      ],
      "stateMutability": "nonpayable",
      "type": "constructor"
    },
    {
      "inputs": [],
      "name": "amount",
      "outputs": [
        {
          "internalType": "uint256",
          "name": "",
          "type": "uint256"
        }
      ],
      "stateMutability": "view",
      "type": "function",
      "constant": true
    },
    {
      "inputs": [],
      "name": "hash",
      "outputs": [
        {
          "internalType": "bytes32",
          "name": "",
          "type": "bytes32"
        }
      ],
      "stateMutability": "view",
      "type": "function",
      "constant": true
    },
    {
      "inputs": [],
      "name": "lockTime",
      "outputs": [
        {
          "internalType": "uint256",
          "name": "",
          "type": "uint256"
        }
      ],
      "stateMutability": "view",
      "type": "function",
      "constant": true
    },
    {
      "inputs": [],
      "name": "owner",
      "outputs": [
        {
          "internalType": "address",
          "name": "",
          "type": "address"
        }
      ],
      "stateMutability": "view",
      "type": "function",
      "constant": true
    },
    {
      "inputs": [],
      "name": "recipient",
      "outputs": [
        {
          "internalType": "address",
          "name": "",
          "type": "address"
        }
      ],
      "stateMutability": "view",
      "type": "function",
      "constant": true
    },
    {
      "inputs": [],
      "name": "secret",
      "outputs": [
        {
          "internalType": "string",
          "name": "",
          "type": "string"
        }
      ],
      "stateMutability": "view",
      "type": "function",
      "constant": true
    },
    {
      "inputs": [],
      "name": "startTime",
      "outputs": [
        {
          "internalType": "uint256",
          "name": "",
          "type": "uint256"
        }
      ],
      "stateMutability": "view",
      "type": "function",
      "constant": true
    },
    {
      "inputs": [],
      "name": "token",
      "outputs": [
        {
          "internalType": "contract IERC20",
          "name": "",
          "type": "address"
        }
      ],
      "stateMutability": "view",
      "type": "function",
      "constant": true
    },
    {
      "inputs": [],
      "name": "fund",
      "outputs": [],
      "stateMutability": "nonpayable",
      "type": "function"
    },
    {
      "inputs": [
        {
          "internalType": "string",
          "name": "_secret",
          "type": "string"
        }
      ],
      "name": "withdraw",
      "outputs": [],
      "stateMutability": "nonpayable",
      "type": "function"
    },
    {
      "inputs": [],
      "name": "refund",
      "outputs": [],
      "stateMutability": "nonpayable",
      "type": "function"
    }
  ],
  "bytecode": "0x60806040526127106001557f41da7906f272f1c9ac1e8c4c32085b2551301d37ce2001a8896fb2868ec3d06360001b6003553480156200003e57600080fd5b5060405162001140380380620011408339818101604052810190620000649190620001dc565b82600460006101000a81548173ffffffffffffffffffffffffffffffffffffffff021916908373ffffffffffffffffffffffffffffffffffffffff16021790555033600560006101000a81548173ffffffffffffffffffffffffffffffffffffffff021916908373ffffffffffffffffffffffffffffffffffffffff1602179055508060068190555081600760006101000a81548173ffffffffffffffffffffffffffffffffffffffff021916908373ffffffffffffffffffffffffffffffffffffffff16021790555050505062000238565b600080fd5b600073ffffffffffffffffffffffffffffffffffffffff82169050919050565b600062000169826200013c565b9050919050565b6200017b816200015c565b81146200018757600080fd5b50565b6000815190506200019b8162000170565b92915050565b6000819050919050565b620001b681620001a1565b8114620001c257600080fd5b50565b600081519050620001d681620001ab565b92915050565b600080600060608486031215620001f857620001f762000137565b5b600062000208868287016200018a565b93505060206200021b868287016200018a565b92505060406200022e86828701620001c5565b9150509250925092565b610ef880620002486000396000f3fe608060405234801561001057600080fd5b50600436106100a95760003560e01c806378e979251161007157806378e979251461012e5780638da5cb5b1461014c578063aa8c217c1461016a578063b60d428814610188578063d1efd30d14610192578063fc0c546a146101b0576100a9565b806309bd5a60146100ae5780630d668087146100cc57806331fb67c2146100ea578063590e1ae31461010657806366d003ac14610110575b600080fd5b6100b66101ce565b6040516100c39190610607565b60405180910390f35b6100d46101d4565b6040516100e1919061063b565b60405180910390f35b61010460048036038101906100ff91906107b0565b6101da565b005b61010e61031c565b005b610118610434565b604051610125919061083a565b60405180910390f35b61013661045a565b604051610143919061063b565b60405180910390f35b610154610460565b604051610161919061083a565b60405180910390f35b610172610486565b60405161017f919061063b565b60405180910390f35b61019061048c565b005b61019a61053a565b6040516101a791906108dd565b60405180910390f35b6101b86105c8565b6040516101c5919061095e565b60405180910390f35b60035481565b60015481565b600354816040516020016101ee91906109b5565b6040516020818303038152906040528051906020012014610244576040517f08c379a000000000000000000000000000000000000000000000000000000000815260040161023b90610a18565b60405180910390fd5b80600290816102539190610c3a565b50600760009054906101000a900473ffffffffffffffffffffffffffffffffffffffff1673ffffffffffffffffffffffffffffffffffffffff1663a9059cbb600460009054906101000a900473ffffffffffffffffffffffffffffffffffffffff166006546040518363ffffffff1660e01b81526004016102d5929190610d0c565b6020604051808303816000875af11580156102f4573d6000803e3d6000fd5b505050506040513d601f19601f820116820180604052508101906103189190610d6d565b5050565b60015460005461032c9190610dc9565b421161036d576040517f08c379a000000000000000000000000000000000000000000000000000000000815260040161036490610e6b565b60405180910390fd5b600760009054906101000a900473ffffffffffffffffffffffffffffffffffffffff1673ffffffffffffffffffffffffffffffffffffffff1663a9059cbb600560009054906101000a900473ffffffffffffffffffffffffffffffffffffffff166006546040518363ffffffff1660e01b81526004016103ee929190610d0c565b6020604051808303816000875af115801561040d573d6000803e3d6000fd5b505050506040513d601f19601f820116820180604052508101906104319190610d6d565b50565b600460009054906101000a900473ffffffffffffffffffffffffffffffffffffffff1681565b60005481565b600560009054906101000a900473ffffffffffffffffffffffffffffffffffffffff1681565b60065481565b42600081905550600760009054906101000a900473ffffffffffffffffffffffffffffffffffffffff1673ffffffffffffffffffffffffffffffffffffffff166323b872dd33306006546040518463ffffffff1660e01b81526004016104f493929190610e8b565b6020604051808303816000875af1158015610513573d6000803e3d6000fd5b505050506040513d601f19601f820116820180604052508101906105379190610d6d565b50565b6002805461054790610a67565b80601f016020809104026020016040519081016040528092919081815260200182805461057390610a67565b80156105c05780601f10610595576101008083540402835291602001916105c0565b820191906000526020600020905b8154815290600101906020018083116105a357829003601f168201915b505050505081565b600760009054906101000a900473ffffffffffffffffffffffffffffffffffffffff1681565b6000819050919050565b610601816105ee565b82525050565b600060208201905061061c60008301846105f8565b92915050565b6000819050919050565b61063581610622565b82525050565b6000602082019050610650600083018461062c565b92915050565b6000604051905090565b600080fd5b600080fd5b600080fd5b600080fd5b6000601f19601f8301169050919050565b7f4e487b7100000000000000000000000000000000000000000000000000000000600052604160045260246000fd5b6106bd82610674565b810181811067ffffffffffffffff821117156106dc576106db610685565b5b80604052505050565b60006106ef610656565b90506106fb82826106b4565b919050565b600067ffffffffffffffff82111561071b5761071a610685565b5b61072482610674565b9050602081019050919050565b82818337600083830152505050565b600061075361074e84610700565b6106e5565b90508281526020810184848401111561076f5761076e61066f565b5b61077a848285610731565b509392505050565b600082601f8301126107975761079661066a565b5b81356107a7848260208601610740565b91505092915050565b6000602082840312156107c6576107c5610660565b5b600082013567ffffffffffffffff8111156107e4576107e3610665565b5b6107f084828501610782565b91505092915050565b600073ffffffffffffffffffffffffffffffffffffffff82169050919050565b6000610824826107f9565b9050919050565b61083481610819565b82525050565b600060208201905061084f600083018461082b565b92915050565b600081519050919050565b600082825260208201905092915050565b60005b8381101561088f578082015181840152602081019050610874565b8381111561089e576000848401525b50505050565b60006108af82610855565b6108b98185610860565b93506108c9818560208601610871565b6108d281610674565b840191505092915050565b600060208201905081810360008301526108f781846108a4565b905092915050565b6000819050919050565b600061092461091f61091a846107f9565b6108ff565b6107f9565b9050919050565b600061093682610909565b9050919050565b60006109488261092b565b9050919050565b6109588161093d565b82525050565b6000602082019050610973600083018461094f565b92915050565b600081905092915050565b600061098f82610855565b6109998185610979565b93506109a9818560208601610871565b80840191505092915050565b60006109c18284610984565b915081905092915050565b7f77726f6e67207365637265740000000000000000000000000000000000000000600082015250565b6000610a02600c83610860565b9150610a0d826109cc565b602082019050919050565b60006020820190508181036000830152610a31816109f5565b9050919050565b7f4e487b7100000000000000000000000000000000000000000000000000000000600052602260045260246000fd5b60006002820490506001821680610a7f57607f821691505b602082108103610a9257610a91610a38565b5b50919050565b60008190508160005260206000209050919050565b60006020601f8301049050919050565b600082821b905092915050565b600060088302610afa7fffffffffffffffffffffffffffffffffffffffffffffffffffffffffffffffff82610abd565b610b048683610abd565b95508019841693508086168417925050509392505050565b6000610b37610b32610b2d84610622565b6108ff565b610622565b9050919050565b6000819050919050565b610b5183610b1c565b610b65610b5d82610b3e565b848454610aca565b825550505050565b600090565b610b7a610b6d565b610b85818484610b48565b505050565b5b81811015610ba957610b9e600082610b72565b600181019050610b8b565b5050565b601f821115610bee57610bbf81610a98565b610bc884610aad565b81016020851015610bd7578190505b610beb610be385610aad565b830182610b8a565b50505b505050565b600082821c905092915050565b6000610c1160001984600802610bf3565b1980831691505092915050565b6000610c2a8383610c00565b9150826002028217905092915050565b610c4382610855565b67ffffffffffffffff811115610c5c57610c5b610685565b5b610c668254610a67565b610c71828285610bad565b600060209050601f831160018114610ca45760008415610c92578287015190505b610c9c8582610c1e565b865550610d04565b601f198416610cb286610a98565b60005b82811015610cda57848901518255600182019150602085019450602081019050610cb5565b86831015610cf75784890151610cf3601f891682610c00565b8355505b6001600288020188555050505b505050505050565b6000604082019050610d21600083018561082b565b610d2e602083018461062c565b9392505050565b60008115159050919050565b610d4a81610d35565b8114610d5557600080fd5b50565b600081519050610d6781610d41565b92915050565b600060208284031215610d8357610d82610660565b5b6000610d9184828501610d58565b91505092915050565b7f4e487b7100000000000000000000000000000000000000000000000000000000600052601160045260246000fd5b6000610dd482610622565b9150610ddf83610622565b9250827fffffffffffffffffffffffffffffffffffffffffffffffffffffffffffffffff03821115610e1457610e13610d9a565b5b828201905092915050565b7f746f6f206561726c790000000000000000000000000000000000000000000000600082015250565b6000610e55600983610860565b9150610e6082610e1f565b602082019050919050565b60006020820190508181036000830152610e8481610e48565b9050919050565b6000606082019050610ea0600083018661082b565b610ead602083018561082b565b610eba604083018461062c565b94935050505056fea2646970667358221220868887aad11106dc088b81f7c864001a592823d7b431cfa815a5cee157a67e4064736f6c634300080f0033",
  "immutableReferences": {},
  "source": "// SPDX-License-Identifier: GPL-3.0\npragma solidity ^0.8.15; \n\nimport '@openzeppelin/contracts/token/ERC20/IERC20.sol';\n\ncontract HTLC {\n  uint public startTime;\n  uint public lockTime = 10000 seconds;\n  string public secret; //swapping\n  bytes32 public hash = 0x41da7906f272f1c9ac1e8c4c32085b2551301d37ce2001a8896fb2868ec3d063;\n  address public recipient;\n  address public owner; \n  uint public amount; \n  IERC20 public token;\n\n  constructor(address _recipient, address _token, uint _amount) { \n    recipient = _recipient;\n    owner = msg.sender; \n    amount = _amount;\n    token = IERC20(_token);\n  } \n\n  function fund() external {\n    startTime = block.timestamp;\n    token.transferFrom(msg.sender, address(this), amount);\n  }\n\n  function withdraw(string memory _secret) external { \n    require(keccak256(abi.encodePacked(_secret)) == hash, 'wrong secret');\n    secret = _secret; \n    token.transfer(recipient, amount); \n  } \n\n  function refund() external { \n    require(block.timestamp > startTime + lockTime, 'too early');\n    token.transfer(owner, amount); \n  } \n}\n",
  "sourcePath": "/home/invozone/atomic swap/contracts/HTLC.sol",
  "compiler": {
    "name": "solc",
    "version": "0.8.15+commit.e14f2714.Emscripten.clang"
  },
  "schemaVersion": "3.4.6",
  "updatedAt": "2022-06-27T09:17:02.235Z",
  "networkType": "ethereum",
  "devdoc": {
    "kind": "dev",
    "methods": {},
    "version": 1
  },
  "userdoc": {
    "kind": "user",
    "methods": {},
    "version": 1
  }
}